{
  "contractName": "StarNotary",
  "abi": [
    {
      "inputs": [],
      "stateMutability": "nonpayable",
      "type": "constructor"
    },
    {
      "anonymous": false,
      "inputs": [
        {
          "indexed": true,
          "internalType": "address",
          "name": "owner",
          "type": "address"
        },
        {
          "indexed": true,
          "internalType": "address",
          "name": "approved",
          "type": "address"
        },
        {
          "indexed": true,
          "internalType": "uint256",
          "name": "tokenId",
          "type": "uint256"
        }
      ],
      "name": "Approval",
      "type": "event"
    },
    {
      "anonymous": false,
      "inputs": [
        {
          "indexed": true,
          "internalType": "address",
          "name": "owner",
          "type": "address"
        },
        {
          "indexed": true,
          "internalType": "address",
          "name": "operator",
          "type": "address"
        },
        {
          "indexed": false,
          "internalType": "bool",
          "name": "approved",
          "type": "bool"
        }
      ],
      "name": "ApprovalForAll",
      "type": "event"
    },
    {
      "anonymous": false,
      "inputs": [
        {
          "indexed": true,
          "internalType": "address",
          "name": "from",
          "type": "address"
        },
        {
          "indexed": true,
          "internalType": "address",
          "name": "to",
          "type": "address"
        },
        {
          "indexed": true,
          "internalType": "uint256",
          "name": "tokenId",
          "type": "uint256"
        }
      ],
      "name": "Transfer",
      "type": "event"
    },
    {
      "inputs": [
        {
          "internalType": "address",
          "name": "to",
          "type": "address"
        },
        {
          "internalType": "uint256",
          "name": "tokenId",
          "type": "uint256"
        }
      ],
      "name": "approve",
      "outputs": [],
      "stateMutability": "nonpayable",
      "type": "function"
    },
    {
      "inputs": [
        {
          "internalType": "address",
          "name": "owner",
          "type": "address"
        }
      ],
      "name": "balanceOf",
      "outputs": [
        {
          "internalType": "uint256",
          "name": "",
          "type": "uint256"
        }
      ],
      "stateMutability": "view",
      "type": "function",
      "constant": true
    },
    {
      "inputs": [
        {
          "internalType": "uint256",
          "name": "tokenId",
          "type": "uint256"
        }
      ],
      "name": "getApproved",
      "outputs": [
        {
          "internalType": "address",
          "name": "",
          "type": "address"
        }
      ],
      "stateMutability": "view",
      "type": "function",
      "constant": true
    },
    {
      "inputs": [],
      "name": "helloWorld",
      "outputs": [
        {
          "internalType": "string",
          "name": "",
          "type": "string"
        }
      ],
      "stateMutability": "view",
      "type": "function",
      "constant": true
    },
    {
      "inputs": [
        {
          "internalType": "address",
          "name": "owner",
          "type": "address"
        },
        {
          "internalType": "address",
          "name": "operator",
          "type": "address"
        }
      ],
      "name": "isApprovedForAll",
      "outputs": [
        {
          "internalType": "bool",
          "name": "",
          "type": "bool"
        }
      ],
      "stateMutability": "view",
      "type": "function",
      "constant": true
    },
    {
      "inputs": [],
      "name": "name",
      "outputs": [
        {
          "internalType": "string",
          "name": "",
          "type": "string"
        }
      ],
      "stateMutability": "view",
      "type": "function",
      "constant": true
    },
    {
      "inputs": [
        {
          "internalType": "uint256",
          "name": "tokenId",
          "type": "uint256"
        }
      ],
      "name": "ownerOf",
      "outputs": [
        {
          "internalType": "address",
          "name": "",
          "type": "address"
        }
      ],
      "stateMutability": "view",
      "type": "function",
      "constant": true
    },
    {
      "inputs": [
        {
          "internalType": "address",
          "name": "from",
          "type": "address"
        },
        {
          "internalType": "address",
          "name": "to",
          "type": "address"
        },
        {
          "internalType": "uint256",
          "name": "tokenId",
          "type": "uint256"
        }
      ],
      "name": "safeTransferFrom",
      "outputs": [],
      "stateMutability": "nonpayable",
      "type": "function"
    },
    {
      "inputs": [
        {
          "internalType": "address",
          "name": "from",
          "type": "address"
        },
        {
          "internalType": "address",
          "name": "to",
          "type": "address"
        },
        {
          "internalType": "uint256",
          "name": "tokenId",
          "type": "uint256"
        },
        {
          "internalType": "bytes",
          "name": "_data",
          "type": "bytes"
        }
      ],
      "name": "safeTransferFrom",
      "outputs": [],
      "stateMutability": "nonpayable",
      "type": "function"
    },
    {
      "inputs": [
        {
          "internalType": "address",
          "name": "operator",
          "type": "address"
        },
        {
          "internalType": "bool",
          "name": "approved",
          "type": "bool"
        }
      ],
      "name": "setApprovalForAll",
      "outputs": [],
      "stateMutability": "nonpayable",
      "type": "function"
    },
    {
      "inputs": [
        {
          "internalType": "uint256",
          "name": "",
          "type": "uint256"
        }
      ],
      "name": "starsForSale",
      "outputs": [
        {
          "internalType": "uint256",
          "name": "",
          "type": "uint256"
        }
      ],
      "stateMutability": "view",
      "type": "function",
      "constant": true
    },
    {
      "inputs": [
        {
          "internalType": "bytes4",
          "name": "interfaceId",
          "type": "bytes4"
        }
      ],
      "name": "supportsInterface",
      "outputs": [
        {
          "internalType": "bool",
          "name": "",
          "type": "bool"
        }
      ],
      "stateMutability": "view",
      "type": "function",
      "constant": true
    },
    {
      "inputs": [],
      "name": "symbol",
      "outputs": [
        {
          "internalType": "string",
          "name": "",
          "type": "string"
        }
      ],
      "stateMutability": "view",
      "type": "function",
      "constant": true
    },
    {
      "inputs": [
        {
          "internalType": "uint256",
          "name": "",
          "type": "uint256"
        }
      ],
      "name": "tokenIdToStarInfo",
      "outputs": [
        {
          "internalType": "string",
          "name": "name",
          "type": "string"
        }
      ],
      "stateMutability": "view",
      "type": "function",
      "constant": true
    },
    {
      "inputs": [
        {
          "internalType": "uint256",
          "name": "tokenId",
          "type": "uint256"
        }
      ],
      "name": "tokenURI",
      "outputs": [
        {
          "internalType": "string",
          "name": "",
          "type": "string"
        }
      ],
      "stateMutability": "view",
      "type": "function",
      "constant": true
    },
    {
      "inputs": [
        {
          "internalType": "address",
          "name": "from",
          "type": "address"
        },
        {
          "internalType": "address",
          "name": "to",
          "type": "address"
        },
        {
          "internalType": "uint256",
          "name": "tokenId",
          "type": "uint256"
        }
      ],
      "name": "transferFrom",
      "outputs": [],
      "stateMutability": "nonpayable",
      "type": "function"
    },
    {
      "inputs": [
        {
          "internalType": "string",
          "name": "_name",
          "type": "string"
        },
        {
          "internalType": "uint256",
          "name": "_tokenId",
          "type": "uint256"
        }
      ],
      "name": "createStar",
      "outputs": [],
      "stateMutability": "nonpayable",
      "type": "function"
    },
    {
      "inputs": [
        {
          "internalType": "uint256",
          "name": "_tokenId",
          "type": "uint256"
        },
        {
          "internalType": "uint256",
          "name": "_price",
          "type": "uint256"
        }
      ],
      "name": "putStarUpForSale",
      "outputs": [],
      "stateMutability": "nonpayable",
      "type": "function"
    },
    {
      "inputs": [
        {
          "internalType": "uint256",
          "name": "_tokenId",
          "type": "uint256"
        }
      ],
      "name": "buyStar",
      "outputs": [],
      "stateMutability": "payable",
      "type": "function",
      "payable": true
    },
    {
      "inputs": [
        {
          "internalType": "uint256",
          "name": "_tokenId",
          "type": "uint256"
        }
      ],
      "name": "lookUptokenIdToStarInfo",
      "outputs": [
        {
          "internalType": "string",
          "name": "",
          "type": "string"
        }
      ],
      "stateMutability": "view",
      "type": "function",
      "constant": true
    },
    {
      "inputs": [
        {
          "internalType": "uint256",
          "name": "_tokenId1",
          "type": "uint256"
        },
        {
          "internalType": "uint256",
          "name": "_tokenId2",
          "type": "uint256"
        }
      ],
      "name": "exchangeStars",
      "outputs": [],
      "stateMutability": "nonpayable",
      "type": "function"
    },
    {
      "inputs": [
        {
          "internalType": "address",
          "name": "_to1",
          "type": "address"
        },
        {
          "internalType": "uint256",
          "name": "_tokenId",
          "type": "uint256"
        }
      ],
      "name": "transferStar",
      "outputs": [],
      "stateMutability": "nonpayable",
      "type": "function"
    }
  ],
  "bytecode": "0x60806040526040518060400160405280600c81526020017f48656c6c6f20576f726c64210000000000000000000000000000000000000000815250600690805190602001906200005192919062000106565b503480156200005f57600080fd5b506040518060400160405280601281526020017f4e6f6e2d46756e6769626c652d546f6b656e00000000000000000000000000008152506040518060400160405280600381526020017f4e465400000000000000000000000000000000000000000000000000000000008152508160009080519060200190620000e492919062000106565b508060019080519060200190620000fd92919062000106565b5050506200021b565b8280546200011490620001e5565b90600052602060002090601f01602090048101928262000138576000855562000184565b82601f106200015357805160ff191683800117855562000184565b8280016001018555821562000184579182015b828111156200018357825182559160200191906001019062000166565b5b50905062000193919062000197565b5090565b5b80821115620001b257600081600090555060010162000198565b5090565b7f4e487b7100000000000000000000000000000000000000000000000000000000600052602260045260246000fd5b60006002820490506001821680620001fe57607f821691505b60208210811415620002155762000214620001b6565b5b50919050565b6132b4806200022b6000396000f3fe6080604052600436106101355760003560e01c80636352211e116100ab578063b88d4fde1161006f578063b88d4fde14610439578063c605f76c14610462578063c87b56dd1461048d578063d7830ccb146104ca578063e7152a5c14610507578063e985e9c51461053057610135565b80636352211e1461034257806370a082311461037f57806395d89b41146103bc5780639697c0a1146103e7578063a22cb4651461041057610135565b806315e0afa5116100fd57806315e0afa5146102455780631967fd981461026e57806323b872dd146102ab5780632f1c34ef146102d4578063316a4361146102f057806342842e0e1461031957610135565b806301ffc9a71461013a5780630564b1301461017757806306fdde03146101b4578063081812fc146101df578063095ea7b31461021c575b600080fd5b34801561014657600080fd5b50610161600480360381019061015c9190611f90565b61056d565b60405161016e9190611fd8565b60405180910390f35b34801561018357600080fd5b5061019e60048036038101906101999190612029565b61064f565b6040516101ab9190612065565b60405180910390f35b3480156101c057600080fd5b506101c9610667565b6040516101d69190612119565b60405180910390f35b3480156101eb57600080fd5b5061020660048036038101906102019190612029565b6106f9565b604051610213919061217c565b60405180910390f35b34801561022857600080fd5b50610243600480360381019061023e91906121c3565b61077e565b005b34801561025157600080fd5b5061026c60048036038101906102679190612203565b610896565b005b34801561027a57600080fd5b5061029560048036038101906102909190612029565b610977565b6040516102a29190612119565b60405180910390f35b3480156102b757600080fd5b506102d260048036038101906102cd9190612243565b610a1d565b005b6102ee60048036038101906102e99190612029565b610a7d565b005b3480156102fc57600080fd5b5061031760048036038101906103129190612203565b610c02565b005b34801561032557600080fd5b50610340600480360381019061033b9190612243565b610c94565b005b34801561034e57600080fd5b5061036960048036038101906103649190612029565b610cb4565b604051610376919061217c565b60405180910390f35b34801561038b57600080fd5b506103a660048036038101906103a19190612296565b610d66565b6040516103b39190612065565b60405180910390f35b3480156103c857600080fd5b506103d1610e1e565b6040516103de9190612119565b60405180910390f35b3480156103f357600080fd5b5061040e600480360381019061040991906123f8565b610eb0565b005b34801561041c57600080fd5b5061043760048036038101906104329190612480565b610f06565b005b34801561044557600080fd5b50610460600480360381019061045b9190612561565b610f1c565b005b34801561046e57600080fd5b50610477610f7e565b6040516104849190612119565b60405180910390f35b34801561049957600080fd5b506104b460048036038101906104af9190612029565b61100c565b6040516104c19190612119565b60405180910390f35b3480156104d657600080fd5b506104f160048036038101906104ec9190612029565b6110b3565b6040516104fe9190612119565b60405180910390f35b34801561051357600080fd5b5061052e600480360381019061052991906121c3565b61115b565b005b34801561053c57600080fd5b50610557600480360381019061055291906125e4565b6111ea565b6040516105649190611fd8565b60405180910390f35b60007f80ac58cd000000000000000000000000000000000000000000000000000000007bffffffffffffffffffffffffffffffffffffffffffffffffffffffff1916827bffffffffffffffffffffffffffffffffffffffffffffffffffffffff1916148061063857507f5b5e139f000000000000000000000000000000000000000000000000000000007bffffffffffffffffffffffffffffffffffffffffffffffffffffffff1916827bffffffffffffffffffffffffffffffffffffffffffffffffffffffff1916145b8061064857506106478261127e565b5b9050919050565b60086020528060005260406000206000915090505481565b60606000805461067690612653565b80601f01602080910402602001604051908101604052809291908181526020018280546106a290612653565b80156106ef5780601f106106c4576101008083540402835291602001916106ef565b820191906000526020600020905b8154815290600101906020018083116106d257829003601f168201915b5050505050905090565b6000610704826112e8565b610743576040517f08c379a000000000000000000000000000000000000000000000000000000000815260040161073a906126f7565b60405180910390fd5b6004600083815260200190815260200160002060009054906101000a900473ffffffffffffffffffffffffffffffffffffffff169050919050565b600061078982610cb4565b90508073ffffffffffffffffffffffffffffffffffffffff168373ffffffffffffffffffffffffffffffffffffffff1614156107fa576040517f08c379a00000000000000000000000000000000000000000000000000000000081526004016107f190612789565b60405180910390fd5b8073ffffffffffffffffffffffffffffffffffffffff16610819611354565b73ffffffffffffffffffffffffffffffffffffffff161480610848575061084781610842611354565b6111ea565b5b610887576040517f08c379a000000000000000000000000000000000000000000000000000000000815260040161087e9061281b565b60405180910390fd5b610891838361135c565b505050565b3373ffffffffffffffffffffffffffffffffffffffff166108b683610cb4565b73ffffffffffffffffffffffffffffffffffffffff161461090c576040517f08c379a0000000000000000000000000000000000000000000000000000000008152600401610903906128ad565b60405180910390fd5b600061091783610cb4565b9050600061092483610cb4565b90503373ffffffffffffffffffffffffffffffffffffffff168273ffffffffffffffffffffffffffffffffffffffff16141561097157610965828286611415565b610970818385611415565b5b50505050565b600760205280600052604060002060009150905080600001805461099a90612653565b80601f01602080910402602001604051908101604052809291908181526020018280546109c690612653565b8015610a135780601f106109e857610100808354040283529160200191610a13565b820191906000526020600020905b8154815290600101906020018083116109f657829003601f168201915b5050505050905081565b610a2e610a28611354565b82611671565b610a6d576040517f08c379a0000000000000000000000000000000000000000000000000000000008152600401610a649061293f565b60405180910390fd5b610a78838383611415565b505050565b6000600860008381526020019081526020016000205411610ad3576040517f08c379a0000000000000000000000000000000000000000000000000000000008152600401610aca906129ab565b60405180910390fd5b6000600860008381526020019081526020016000205490506000610af683610cb4565b9050813411610b3a576040517f08c379a0000000000000000000000000000000000000000000000000000000008152600401610b3190612a17565b60405180910390fd5b610b45813385611415565b6000610b508261174f565b90508073ffffffffffffffffffffffffffffffffffffffff166108fc849081150290604051600060405180830381858888f19350505050158015610b98573d6000803e3d6000fd5b5082341115610bfc57610baa3361174f565b73ffffffffffffffffffffffffffffffffffffffff166108fc8434610bcf9190612a66565b9081150290604051600060405180830381858888f19350505050158015610bfa573d6000803e3d6000fd5b505b50505050565b3373ffffffffffffffffffffffffffffffffffffffff16610c2283610cb4565b73ffffffffffffffffffffffffffffffffffffffff1614610c78576040517f08c379a0000000000000000000000000000000000000000000000000000000008152600401610c6f906128ad565b60405180910390fd5b8060086000848152602001908152602001600020819055505050565b610caf83838360405180602001604052806000815250610f1c565b505050565b6000806002600084815260200190815260200160002060009054906101000a900473ffffffffffffffffffffffffffffffffffffffff169050600073ffffffffffffffffffffffffffffffffffffffff168173ffffffffffffffffffffffffffffffffffffffff161415610d5d576040517f08c379a0000000000000000000000000000000000000000000000000000000008152600401610d5490612b0c565b60405180910390fd5b80915050919050565b60008073ffffffffffffffffffffffffffffffffffffffff168273ffffffffffffffffffffffffffffffffffffffff161415610dd7576040517f08c379a0000000000000000000000000000000000000000000000000000000008152600401610dce90612b9e565b60405180910390fd5b600360008373ffffffffffffffffffffffffffffffffffffffff1673ffffffffffffffffffffffffffffffffffffffff168152602001908152602001600020549050919050565b606060018054610e2d90612653565b80601f0160208091040260200160405190810160405280929190818152602001828054610e5990612653565b8015610ea65780601f10610e7b57610100808354040283529160200191610ea6565b820191906000526020600020905b815481529060010190602001808311610e8957829003601f168201915b5050505050905090565b6000604051806020016040528084815250905080600760008481526020019081526020016000206000820151816000019080519060200190610ef3929190611e81565b50905050610f013383611759565b505050565b610f18610f11611354565b8383611777565b5050565b610f2d610f27611354565b83611671565b610f6c576040517f08c379a0000000000000000000000000000000000000000000000000000000008152600401610f639061293f565b60405180910390fd5b610f78848484846118e4565b50505050565b60068054610f8b90612653565b80601f0160208091040260200160405190810160405280929190818152602001828054610fb790612653565b80156110045780601f10610fd957610100808354040283529160200191611004565b820191906000526020600020905b815481529060010190602001808311610fe757829003601f168201915b505050505081565b6060611017826112e8565b611056576040517f08c379a000000000000000000000000000000000000000000000000000000000815260040161104d90612c30565b60405180910390fd5b6000611060611940565b9050600081511161108057604051806020016040528060008152506110ab565b8061108a84611957565b60405160200161109b929190612c8c565b6040516020818303038152906040525b915050919050565b60606007600083815260200190815260200160002060000180546110d690612653565b80601f016020809104026020016040519081016040528092919081815260200182805461110290612653565b801561114f5780601f106111245761010080835404028352916020019161114f565b820191906000526020600020905b81548152906001019060200180831161113257829003601f168201915b50505050509050919050565b3373ffffffffffffffffffffffffffffffffffffffff1661117b82610cb4565b73ffffffffffffffffffffffffffffffffffffffff16146111d1576040517f08c379a00000000000000000000000000000000000000000000000000000000081526004016111c8906128ad565b60405180910390fd5b6111db828261077e565b6111e6338383610c94565b5050565b6000600560008473ffffffffffffffffffffffffffffffffffffffff1673ffffffffffffffffffffffffffffffffffffffff16815260200190815260200160002060008373ffffffffffffffffffffffffffffffffffffffff1673ffffffffffffffffffffffffffffffffffffffff16815260200190815260200160002060009054906101000a900460ff16905092915050565b60007f01ffc9a7000000000000000000000000000000000000000000000000000000007bffffffffffffffffffffffffffffffffffffffffffffffffffffffff1916827bffffffffffffffffffffffffffffffffffffffffffffffffffffffff1916149050919050565b60008073ffffffffffffffffffffffffffffffffffffffff166002600084815260200190815260200160002060009054906101000a900473ffffffffffffffffffffffffffffffffffffffff1673ffffffffffffffffffffffffffffffffffffffff1614159050919050565b600033905090565b816004600083815260200190815260200160002060006101000a81548173ffffffffffffffffffffffffffffffffffffffff021916908373ffffffffffffffffffffffffffffffffffffffff160217905550808273ffffffffffffffffffffffffffffffffffffffff166113cf83610cb4565b73ffffffffffffffffffffffffffffffffffffffff167f8c5be1e5ebec7d5bd14f71427d1e84f3dd0314c0f7b2291e5b200ac8c7c3b92560405160405180910390a45050565b8273ffffffffffffffffffffffffffffffffffffffff1661143582610cb4565b73ffffffffffffffffffffffffffffffffffffffff161461148b576040517f08c379a000000000000000000000000000000000000000000000000000000000815260040161148290612d22565b60405180910390fd5b600073ffffffffffffffffffffffffffffffffffffffff168273ffffffffffffffffffffffffffffffffffffffff1614156114fb576040517f08c379a00000000000000000000000000000000000000000000000000000000081526004016114f290612db4565b60405180910390fd5b611506838383611ab8565b61151160008261135c565b6001600360008573ffffffffffffffffffffffffffffffffffffffff1673ffffffffffffffffffffffffffffffffffffffff16815260200190815260200160002060008282546115619190612a66565b925050819055506001600360008473ffffffffffffffffffffffffffffffffffffffff1673ffffffffffffffffffffffffffffffffffffffff16815260200190815260200160002060008282546115b89190612dd4565b92505081905550816002600083815260200190815260200160002060006101000a81548173ffffffffffffffffffffffffffffffffffffffff021916908373ffffffffffffffffffffffffffffffffffffffff160217905550808273ffffffffffffffffffffffffffffffffffffffff168473ffffffffffffffffffffffffffffffffffffffff167fddf252ad1be2c89b69c2b068fc378daa952ba7f163c4a11628f55a4df523b3ef60405160405180910390a4505050565b600061167c826112e8565b6116bb576040517f08c379a00000000000000000000000000000000000000000000000000000000081526004016116b290612e9c565b60405180910390fd5b60006116c683610cb4565b90508073ffffffffffffffffffffffffffffffffffffffff168473ffffffffffffffffffffffffffffffffffffffff16148061173557508373ffffffffffffffffffffffffffffffffffffffff1661171d846106f9565b73ffffffffffffffffffffffffffffffffffffffff16145b80611746575061174581856111ea565b5b91505092915050565b6000819050919050565b611773828260405180602001604052806000815250611abd565b5050565b8173ffffffffffffffffffffffffffffffffffffffff168373ffffffffffffffffffffffffffffffffffffffff1614156117e6576040517f08c379a00000000000000000000000000000000000000000000000000000000081526004016117dd90612f08565b60405180910390fd5b80600560008573ffffffffffffffffffffffffffffffffffffffff1673ffffffffffffffffffffffffffffffffffffffff16815260200190815260200160002060008473ffffffffffffffffffffffffffffffffffffffff1673ffffffffffffffffffffffffffffffffffffffff16815260200190815260200160002060006101000a81548160ff0219169083151502179055508173ffffffffffffffffffffffffffffffffffffffff168373ffffffffffffffffffffffffffffffffffffffff167f17307eab39ab6107e8899845ad3d59bd9653f200f220920489ca2b5937696c31836040516118d79190611fd8565b60405180910390a3505050565b6118ef848484611415565b6118fb84848484611b18565b61193a576040517f08c379a000000000000000000000000000000000000000000000000000000000815260040161193190612f9a565b60405180910390fd5b50505050565b606060405180602001604052806000815250905090565b6060600082141561199f576040518060400160405280600181526020017f30000000000000000000000000000000000000000000000000000000000000008152509050611ab3565b600082905060005b600082146119d15780806119ba90612fba565b915050600a826119ca9190613032565b91506119a7565b60008167ffffffffffffffff8111156119ed576119ec6122cd565b5b6040519080825280601f01601f191660200182016040528015611a1f5781602001600182028036833780820191505090505b5090505b60008514611aac57600182611a389190612a66565b9150600a85611a479190613063565b6030611a539190612dd4565b60f81b818381518110611a6957611a68613094565b5b60200101907effffffffffffffffffffffffffffffffffffffffffffffffffffffffffffff1916908160001a905350600a85611aa59190613032565b9450611a23565b8093505050505b919050565b505050565b611ac78383611ca0565b611ad46000848484611b18565b611b13576040517f08c379a0000000000000000000000000000000000000000000000000000000008152600401611b0a90612f9a565b60405180910390fd5b505050565b6000611b398473ffffffffffffffffffffffffffffffffffffffff16611e6e565b15611c93578373ffffffffffffffffffffffffffffffffffffffff1663150b7a02611b62611354565b8786866040518563ffffffff1660e01b8152600401611b849493929190613118565b6020604051808303816000875af1925050508015611bc057506040513d601f19601f82011682018060405250810190611bbd9190613179565b60015b611c43573d8060008114611bf0576040519150601f19603f3d011682016040523d82523d6000602084013e611bf5565b606091505b50600081511415611c3b576040517f08c379a0000000000000000000000000000000000000000000000000000000008152600401611c3290612f9a565b60405180910390fd5b805181602001fd5b63150b7a0260e01b7bffffffffffffffffffffffffffffffffffffffffffffffffffffffff1916817bffffffffffffffffffffffffffffffffffffffffffffffffffffffff191614915050611c98565b600190505b949350505050565b600073ffffffffffffffffffffffffffffffffffffffff168273ffffffffffffffffffffffffffffffffffffffff161415611d10576040517f08c379a0000000000000000000000000000000000000000000000000000000008152600401611d07906131f2565b60405180910390fd5b611d19816112e8565b15611d59576040517f08c379a0000000000000000000000000000000000000000000000000000000008152600401611d509061325e565b60405180910390fd5b611d6560008383611ab8565b6001600360008473ffffffffffffffffffffffffffffffffffffffff1673ffffffffffffffffffffffffffffffffffffffff1681526020019081526020016000206000828254611db59190612dd4565b92505081905550816002600083815260200190815260200160002060006101000a81548173ffffffffffffffffffffffffffffffffffffffff021916908373ffffffffffffffffffffffffffffffffffffffff160217905550808273ffffffffffffffffffffffffffffffffffffffff16600073ffffffffffffffffffffffffffffffffffffffff167fddf252ad1be2c89b69c2b068fc378daa952ba7f163c4a11628f55a4df523b3ef60405160405180910390a45050565b600080823b905060008111915050919050565b828054611e8d90612653565b90600052602060002090601f016020900481019282611eaf5760008555611ef6565b82601f10611ec857805160ff1916838001178555611ef6565b82800160010185558215611ef6579182015b82811115611ef5578251825591602001919060010190611eda565b5b509050611f039190611f07565b5090565b5b80821115611f20576000816000905550600101611f08565b5090565b6000604051905090565b600080fd5b600080fd5b60007fffffffff0000000000000000000000000000000000000000000000000000000082169050919050565b611f6d81611f38565b8114611f7857600080fd5b50565b600081359050611f8a81611f64565b92915050565b600060208284031215611fa657611fa5611f2e565b5b6000611fb484828501611f7b565b91505092915050565b60008115159050919050565b611fd281611fbd565b82525050565b6000602082019050611fed6000830184611fc9565b92915050565b6000819050919050565b61200681611ff3565b811461201157600080fd5b50565b60008135905061202381611ffd565b92915050565b60006020828403121561203f5761203e611f2e565b5b600061204d84828501612014565b91505092915050565b61205f81611ff3565b82525050565b600060208201905061207a6000830184612056565b92915050565b600081519050919050565b600082825260208201905092915050565b60005b838110156120ba57808201518184015260208101905061209f565b838111156120c9576000848401525b50505050565b6000601f19601f8301169050919050565b60006120eb82612080565b6120f5818561208b565b935061210581856020860161209c565b61210e816120cf565b840191505092915050565b6000602082019050818103600083015261213381846120e0565b905092915050565b600073ffffffffffffffffffffffffffffffffffffffff82169050919050565b60006121668261213b565b9050919050565b6121768161215b565b82525050565b6000602082019050612191600083018461216d565b92915050565b6121a08161215b565b81146121ab57600080fd5b50565b6000813590506121bd81612197565b92915050565b600080604083850312156121da576121d9611f2e565b5b60006121e8858286016121ae565b92505060206121f985828601612014565b9150509250929050565b6000806040838503121561221a57612219611f2e565b5b600061222885828601612014565b925050602061223985828601612014565b9150509250929050565b60008060006060848603121561225c5761225b611f2e565b5b600061226a868287016121ae565b935050602061227b868287016121ae565b925050604061228c86828701612014565b9150509250925092565b6000602082840312156122ac576122ab611f2e565b5b60006122ba848285016121ae565b91505092915050565b600080fd5b600080fd5b7f4e487b7100000000000000000000000000000000000000000000000000000000600052604160045260246000fd5b612305826120cf565b810181811067ffffffffffffffff82111715612324576123236122cd565b5b80604052505050565b6000612337611f24565b905061234382826122fc565b919050565b600067ffffffffffffffff821115612363576123626122cd565b5b61236c826120cf565b9050602081019050919050565b82818337600083830152505050565b600061239b61239684612348565b61232d565b9050828152602081018484840111156123b7576123b66122c8565b5b6123c2848285612379565b509392505050565b600082601f8301126123df576123de6122c3565b5b81356123ef848260208601612388565b91505092915050565b6000806040838503121561240f5761240e611f2e565b5b600083013567ffffffffffffffff81111561242d5761242c611f33565b5b612439858286016123ca565b925050602061244a85828601612014565b9150509250929050565b61245d81611fbd565b811461246857600080fd5b50565b60008135905061247a81612454565b92915050565b6000806040838503121561249757612496611f2e565b5b60006124a5858286016121ae565b92505060206124b68582860161246b565b9150509250929050565b600067ffffffffffffffff8211156124db576124da6122cd565b5b6124e4826120cf565b9050602081019050919050565b60006125046124ff846124c0565b61232d565b9050828152602081018484840111156125205761251f6122c8565b5b61252b848285612379565b509392505050565b600082601f830112612548576125476122c3565b5b81356125588482602086016124f1565b91505092915050565b6000806000806080858703121561257b5761257a611f2e565b5b6000612589878288016121ae565b945050602061259a878288016121ae565b93505060406125ab87828801612014565b925050606085013567ffffffffffffffff8111156125cc576125cb611f33565b5b6125d887828801612533565b91505092959194509250565b600080604083850312156125fb576125fa611f2e565b5b6000612609858286016121ae565b925050602061261a858286016121ae565b9150509250929050565b7f4e487b7100000000000000000000000000000000000000000000000000000000600052602260045260246000fd5b6000600282049050600182168061266b57607f821691505b6020821081141561267f5761267e612624565b5b50919050565b7f4552433732313a20617070726f76656420717565727920666f72206e6f6e657860008201527f697374656e7420746f6b656e0000000000000000000000000000000000000000602082015250565b60006126e1602c8361208b565b91506126ec82612685565b604082019050919050565b60006020820190508181036000830152612710816126d4565b9050919050565b7f4552433732313a20617070726f76616c20746f2063757272656e74206f776e6560008201527f7200000000000000000000000000000000000000000000000000000000000000602082015250565b600061277360218361208b565b915061277e82612717565b604082019050919050565b600060208201905081810360008301526127a281612766565b9050919050565b7f4552433732313a20617070726f76652063616c6c6572206973206e6f74206f7760008201527f6e6572206e6f7220617070726f76656420666f7220616c6c0000000000000000602082015250565b600061280560388361208b565b9150612810826127a9565b604082019050919050565b60006020820190508181036000830152612834816127f8565b9050919050565b7f596f752063616e27742073616c6520746865205374617220796f7520646f6e2760008201527f74206f776e656400000000000000000000000000000000000000000000000000602082015250565b600061289760278361208b565b91506128a28261283b565b604082019050919050565b600060208201905081810360008301526128c68161288a565b9050919050565b7f4552433732313a207472616e736665722063616c6c6572206973206e6f74206f60008201527f776e6572206e6f7220617070726f766564000000000000000000000000000000602082015250565b600061292960318361208b565b9150612934826128cd565b604082019050919050565b600060208201905081810360008301526129588161291c565b9050919050565b7f54686520537461722073686f756c6420626520757020666f722073616c650000600082015250565b6000612995601e8361208b565b91506129a08261295f565b602082019050919050565b600060208201905081810360008301526129c481612988565b9050919050565b7f596f75206e65656420746f206861766520656e6f756768204574686572000000600082015250565b6000612a01601d8361208b565b9150612a0c826129cb565b602082019050919050565b60006020820190508181036000830152612a30816129f4565b9050919050565b7f4e487b7100000000000000000000000000000000000000000000000000000000600052601160045260246000fd5b6000612a7182611ff3565b9150612a7c83611ff3565b925082821015612a8f57612a8e612a37565b5b828203905092915050565b7f4552433732313a206f776e657220717565727920666f72206e6f6e657869737460008201527f656e7420746f6b656e0000000000000000000000000000000000000000000000602082015250565b6000612af660298361208b565b9150612b0182612a9a565b604082019050919050565b60006020820190508181036000830152612b2581612ae9565b9050919050565b7f4552433732313a2062616c616e636520717565727920666f7220746865207a6560008201527f726f206164647265737300000000000000000000000000000000000000000000602082015250565b6000612b88602a8361208b565b9150612b9382612b2c565b604082019050919050565b60006020820190508181036000830152612bb781612b7b565b9050919050565b7f4552433732314d657461646174613a2055524920717565727920666f72206e6f60008201527f6e6578697374656e7420746f6b656e0000000000000000000000000000000000602082015250565b6000612c1a602f8361208b565b9150612c2582612bbe565b604082019050919050565b60006020820190508181036000830152612c4981612c0d565b9050919050565b600081905092915050565b6000612c6682612080565b612c708185612c50565b9350612c8081856020860161209c565b80840191505092915050565b6000612c988285612c5b565b9150612ca48284612c5b565b91508190509392505050565b7f4552433732313a207472616e73666572206f6620746f6b656e2074686174206960008201527f73206e6f74206f776e0000000000000000000000000000000000000000000000602082015250565b6000612d0c60298361208b565b9150612d1782612cb0565b604082019050919050565b60006020820190508181036000830152612d3b81612cff565b9050919050565b7f4552433732313a207472616e7366657220746f20746865207a65726f2061646460008201527f7265737300000000000000000000000000000000000000000000000000000000602082015250565b6000612d9e60248361208b565b9150612da982612d42565b604082019050919050565b60006020820190508181036000830152612dcd81612d91565b9050919050565b6000612ddf82611ff3565b9150612dea83611ff3565b9250827fffffffffffffffffffffffffffffffffffffffffffffffffffffffffffffffff03821115612e1f57612e1e612a37565b5b828201905092915050565b7f4552433732313a206f70657261746f7220717565727920666f72206e6f6e657860008201527f697374656e7420746f6b656e0000000000000000000000000000000000000000602082015250565b6000612e86602c8361208b565b9150612e9182612e2a565b604082019050919050565b60006020820190508181036000830152612eb581612e79565b9050919050565b7f4552433732313a20617070726f766520746f2063616c6c657200000000000000600082015250565b6000612ef260198361208b565b9150612efd82612ebc565b602082019050919050565b60006020820190508181036000830152612f2181612ee5565b9050919050565b7f4552433732313a207472616e7366657220746f206e6f6e20455243373231526560008201527f63656976657220696d706c656d656e7465720000000000000000000000000000602082015250565b6000612f8460328361208b565b9150612f8f82612f28565b604082019050919050565b60006020820190508181036000830152612fb381612f77565b9050919050565b6000612fc582611ff3565b91507fffffffffffffffffffffffffffffffffffffffffffffffffffffffffffffffff821415612ff857612ff7612a37565b5b600182019050919050565b7f4e487b7100000000000000000000000000000000000000000000000000000000600052601260045260246000fd5b600061303d82611ff3565b915061304883611ff3565b92508261305857613057613003565b5b828204905092915050565b600061306e82611ff3565b915061307983611ff3565b92508261308957613088613003565b5b828206905092915050565b7f4e487b7100000000000000000000000000000000000000000000000000000000600052603260045260246000fd5b600081519050919050565b600082825260208201905092915050565b60006130ea826130c3565b6130f481856130ce565b935061310481856020860161209c565b61310d816120cf565b840191505092915050565b600060808201905061312d600083018761216d565b61313a602083018661216d565b6131476040830185612056565b818103606083015261315981846130df565b905095945050505050565b60008151905061317381611f64565b92915050565b60006020828403121561318f5761318e611f2e565b5b600061319d84828501613164565b91505092915050565b7f4552433732313a206d696e7420746f20746865207a65726f2061646472657373600082015250565b60006131dc60208361208b565b91506131e7826131a6565b602082019050919050565b6000602082019050818103600083015261320b816131cf565b9050919050565b7f4552433732313a20746f6b656e20616c7265616479206d696e74656400000000600082015250565b6000613248601c8361208b565b915061325382613212565b602082019050919050565b600060208201905081810360008301526132778161323b565b905091905056fea2646970667358221220672590d8db9d77355cc07ce245125765a8dd2773310162e9f7f17c53d00b0bda64736f6c634300080a0033",
  "immutableReferences": {},
  "source": "// SPDX-License-Identifier: GTP-3.0\npragma solidity ^0.8.0;\n//Importing openzeppelin-solidity ERC-721 implemented Standard\nimport \"@openzeppelin/contracts/token/ERC721/ERC721.sol\";\nimport \"@openzeppelin/contracts/utils/Counters.sol\";\n\n// StarNotary Contract declaration inheritance the ERC721 openzeppelin implementation\ncontract StarNotary is ERC721 {\n    constructor() ERC721(\"Non-Fungible-Token\", \"NFT\") {}\n\n    string public helloWorld = \"Hello World!\";\n    // Star data\n    struct Star {\n        string name;\n    }\n\n    // Implement Task 1 Add a name and symbol properties\n    // name: Is a short name to your token\n    // symbol: Is a short string like 'USD' -> 'American Dollar'\n\n    // mapping the Star with the Owner Address\n    mapping(uint256 => Star) public tokenIdToStarInfo;\n    // mapping the TokenId and price\n    mapping(uint256 => uint256) public starsForSale;\n\n    // Create Star using the Struct\n    function createStar(string memory _name, uint256 _tokenId) public {\n        // Passing the name and tokenId as a parameters\n        Star memory newStar = Star(_name); // Star is an struct so we are creating a new Star\n        tokenIdToStarInfo[_tokenId] = newStar; // Creating in memory the Star -> tokenId mapping\n        _safeMint(msg.sender, _tokenId); // _mint assign the the star with _tokenId to the sender address (ownership)\n    }\n\n    // Putting an Star for sale (Adding the star tokenid into the mapping starsForSale, first verify that the sender is the owner)\n    function putStarUpForSale(uint256 _tokenId, uint256 _price) public {\n        require(\n            ownerOf(_tokenId) == msg.sender,\n            \"You can't sale the Star you don't owned\"\n        );\n        starsForSale[_tokenId] = _price;\n    }\n\n    // Function that allows you to convert an address into a payable address\n    function _make_payable(address x) internal pure returns (address payable) {\n        return payable(address(uint160(x)));\n    }\n\n    function buyStar(uint256 _tokenId) public payable {\n        require(starsForSale[_tokenId] > 0, \"The Star should be up for sale\");\n        uint256 starCost = starsForSale[_tokenId];\n        address ownerAddress = ownerOf(_tokenId);\n        require(msg.value > starCost, \"You need to have enough Ether\");\n        _transfer(ownerAddress, msg.sender, _tokenId); // We can't use _addTokenTo or_removeTokenFrom functions, now we have to use _safeTransferFrom\n        address payable ownerAddressPayable = _make_payable(ownerAddress); // We need to make this conversion to be able to use transfer() function to transfer ethers\n        ownerAddressPayable.transfer(starCost);\n        if (msg.value > starCost) {\n            _make_payable(msg.sender).transfer(msg.value - starCost);\n        }\n    }\n\n    // Implement Task 1 lookUptokenIdToStarInfo\n    function lookUptokenIdToStarInfo(uint256 _tokenId)\n        public\n        view\n        returns (string memory)\n    {\n        //1. You should return the Star saved in tokenIdToStarInfo mapping\n        return tokenIdToStarInfo[_tokenId].name;\n    }\n\n    // Implement Task 1 Exchange Stars function\n    function exchangeStars(uint256 _tokenId1, uint256 _tokenId2) public {\n        //1. Passing to star tokenId you will need to check if the owner of _tokenId1 or _tokenId2 is the sender\n        require(\n            ownerOf(_tokenId1) == msg.sender,\n            \"You can't sale the Star you don't owned\"\n        );\n\n        //2. You don't have to check for the price of the token (star)\n        //3. Get the owner of the two tokens (ownerOf(_tokenId1), ownerOf(_tokenId1)\n        address ownerToken1BeforeTransfer = ownerOf(_tokenId1);\n        address ownerToken2BeforeTransfer = ownerOf(_tokenId2);\n        //4. Use _safeTransferFrom function to exchange the tokens.\n        if (ownerToken1BeforeTransfer == msg.sender) {\n            // because only the property can change him token\n            _transfer(\n                ownerToken1BeforeTransfer,\n                ownerToken2BeforeTransfer,\n                _tokenId1\n            );\n            // should be response sending token if the second address do nothing to lose their token?\n            _transfer(\n                ownerToken2BeforeTransfer,\n                ownerToken1BeforeTransfer,\n                _tokenId2\n            );\n        }\n    }\n\n    // Implement Task 1 Transfer Stars\n    function transferStar(address _to1, uint256 _tokenId) public {\n        //1. Check if the sender is the ownerOf(_tokenId)\n        require(\n            ownerOf(_tokenId) == msg.sender,\n            \"You can't sale the Star you don't owned\"\n        );\n        //2. Use the safeTransferFrom(from, to, tokenId); function to transfer the Star\n        approve(_to1, _tokenId);\n        safeTransferFrom(msg.sender, _to1, _tokenId);\n    }\n}\n",
  "sourcePath": "/Users/gabrielcerdam/develop/udacity/project-2/dev/contracts/StarNotary.sol",
  "compiler": {
    "name": "solc",
    "version": "0.8.10+commit.fc410830.Emscripten.clang"
  },
  "schemaVersion": "3.4.3",
  "updatedAt": "2022-01-11T00:01:05.611Z",
  "networkType": "ethereum",
  "devdoc": {
    "kind": "dev",
    "methods": {
      "approve(address,uint256)": {
        "details": "See {IERC721-approve}."
      },
      "balanceOf(address)": {
        "details": "See {IERC721-balanceOf}."
      },
      "getApproved(uint256)": {
        "details": "See {IERC721-getApproved}."
      },
      "isApprovedForAll(address,address)": {
        "details": "See {IERC721-isApprovedForAll}."
      },
      "name()": {
        "details": "See {IERC721Metadata-name}."
      },
      "ownerOf(uint256)": {
        "details": "See {IERC721-ownerOf}."
      },
      "safeTransferFrom(address,address,uint256)": {
        "details": "See {IERC721-safeTransferFrom}."
      },
      "safeTransferFrom(address,address,uint256,bytes)": {
        "details": "See {IERC721-safeTransferFrom}."
      },
      "setApprovalForAll(address,bool)": {
        "details": "See {IERC721-setApprovalForAll}."
      },
      "supportsInterface(bytes4)": {
        "details": "See {IERC165-supportsInterface}."
      },
      "symbol()": {
        "details": "See {IERC721Metadata-symbol}."
      },
      "tokenURI(uint256)": {
        "details": "See {IERC721Metadata-tokenURI}."
      },
      "transferFrom(address,address,uint256)": {
        "details": "See {IERC721-transferFrom}."
      }
    },
    "version": 1
  },
  "userdoc": {
    "kind": "user",
    "methods": {},
    "version": 1
  }
}